{
  "contractName": "testDelete",
  "abi": [
    {
      "constant": true,
      "inputs": [],
      "name": "Name",
      "outputs": [
        {
          "name": "",
          "type": "string"
        }
      ],
      "payable": false,
      "stateMutability": "view",
      "type": "function",
      "signature": "0x8052474d"
    },
    {
      "constant": true,
      "inputs": [],
      "name": "ethereumAddress",
      "outputs": [
        {
          "name": "",
          "type": "address"
        }
      ],
      "payable": false,
      "stateMutability": "view",
      "type": "function",
      "signature": "0x98dbe72c"
    },
    {
      "constant": false,
      "inputs": [
        {
          "name": "_Name",
          "type": "string"
        },
        {
          "name": "_ethereumAddress",
          "type": "address"
        }
      ],
      "name": "recordContract",
      "outputs": [],
      "payable": false,
      "stateMutability": "nonpayable",
      "type": "function",
      "signature": "0x350e424c"
    }
  ],
  "bytecode": "0x608060405234801561001057600080fd5b506103db806100206000396000f3fe6080604052600436106100565763ffffffff7c0100000000000000000000000000000000000000000000000000000000600035041663350e424c811461005b5780638052474d1461012857806398dbe72c146101b2575b600080fd5b34801561006757600080fd5b506101266004803603604081101561007e57600080fd5b81019060208101813564010000000081111561009957600080fd5b8201836020820111156100ab57600080fd5b803590602001918460018302840111640100000000831117156100cd57600080fd5b91908080601f0160208091040260200160405190810160405280939291908181526020018383808284376000920191909152509295505050903573ffffffffffffffffffffffffffffffffffffffff1691506101f09050565b005b34801561013457600080fd5b5061013d61024c565b6040805160208082528351818301528351919283929083019185019080838360005b8381101561017757818101518382015260200161015f565b50505050905090810190601f1680156101a45780820380516001836020036101000a031916815260200191505b509250505060405180910390f35b3480156101be57600080fd5b506101c76102f8565b6040805173ffffffffffffffffffffffffffffffffffffffff9092168252519081900360200190f35b8151610203906000906020850190610314565b50600180547fffffffffffffffffffffffff00000000000000000000000000000000000000001673ffffffffffffffffffffffffffffffffffffffff9290921691909117905550565b6000805460408051602060026001851615610100027fffffffffffffffffffffffffffffffffffffffffffffffffffffffffffffffff0190941693909304601f810184900484028201840190925281815292918301828280156102f05780601f106102c5576101008083540402835291602001916102f0565b820191906000526020600020905b8154815290600101906020018083116102d357829003601f168201915b505050505081565b60015473ffffffffffffffffffffffffffffffffffffffff1681565b828054600181600116156101000203166002900490600052602060002090601f016020900481019282601f1061035557805160ff1916838001178555610382565b82800160010185558215610382579182015b82811115610382578251825591602001919060010190610367565b5061038e929150610392565b5090565b6103ac91905b8082111561038e5760008155600101610398565b9056fea165627a7a72305820a965cb9274ad8fa4034a3c426376d9d8ae18b25291c436f46e141774d75317d00029",
  "source": "pragma solidity ^0.5.0;\n\ncontract testDelete {\n    string public Name;\n    address public ethereumAddress;\n    //Open Law Template for testDelete\n    function recordContract(string memory _Name, address _ethereumAddress)\n    public {\n        Name = _Name;\n        ethereumAddress = _ethereumAddress;\n    }\n\n}",
  "sourcePath": "/Users/LeonhardLaw/opencard/contracts/testDelete.sol",
  "compiler": {
    "name": "solc",
    "version": "0.5.0+commit.1d4f565a.Emscripten.clang"
  },
  "schemaVersion": "3.0.6",
  "updatedAt": "2019-04-13T16:35:21.080Z",
  "devdoc": {
    "methods": {}
  },
  "userdoc": {
    "methods": {}
  }
}